:1000000022C03CC03BC03AC039C038C037C036C03F
:1000100035C01CC733C032C031C030C02FC02EC065
:100020002DC02CC02BC0A4C9EFC9FCC90DCA1ECA63
:1000300036CA69CA85CABBCABDCABFCAC1CAC3CA91
:10004000C5CAC7CAC9CA11241FBECFE5D4E0DEBFE6
:10005000CDBF11E0A0E6B0E0E4EEFCE102C0059007
:100060000D92A631B107D9F721E0A6E1B1E001C0B8
:100070001D92AA3AB207E1F784D832CEC1CFE6E1A9
:10008000F1E080E2819391E0EE31F907D9F7109227
:100090001E010895AC0160E070E080E0B7C44F92AB
:1000A0005F926F927F928F929F92AF92BF92CF9208
:1000B000DF92EF92FF920F931F93CF93DF93DC01B8
:1000C000CB019C01AD0160E070E080E090E00CE1CC
:1000D0003EDBE0E4AE2EF8E7BF2EADE7CA2EDD240E
:1000E000D394E12CF12C00E010E0E7DA29013A0189
:1000F000C9019F739064CEDFBEE0769467945794F5
:100100004794BA95D1F7C2019F739064DF91CF9164
:100110001F910F91FF90EF90DF90CF90BF90AF9025
:100120009F908F907F906F905F904F90B3CF0F9381
:100130001F93CF93DF93C6E1D1E0FE018191882325
:10014000E9F090E0C0970A9710F0EF01F6CF60E079
:1001500070E0CB01E991F0E0F097EA30F10588F426
:10016000AAE0B0E09B01AC019CDA8F01FF0F220BEB
:10017000330B600F711F821F931FECCF60E070E0A4
:10018000CB01DF91CF911F910F9108958F929F9294
:10019000AF92BF92EF92FF920F931F93261B370BE4
:1001A000480B590BA8EEB3E07CDA4B015C01A801C7
:1001B000970177DA9B01AC01C501B40150DA211532
:1001C00031054105510521F421E030E040E050E0E7
:1001D000CA01B9011F910F91FF90EF90BF90AF90AE
:1001E0009F908F900895809160009091610087D7D3
:1001F00020912E0130E082179307E1F480912F01C6
:100200008F3FD1F08F5F80932F018A30A9F48091C6
:10021000280190E00196837099272091290130E010
:100220008217930749F080932801FC01E65DFE4F99
:100230001082089510922F0108958091280190E076
:1002400020912901821B910997FD04960895209120
:10025000290180912801821769F030E0F901E65DFB
:10026000FE4F808190E02F5F3F4F23703327209314
:10027000290108958FEF9FEF089562E070E080916B
:100280006000909161007BD6EEE2F1E01082118275
:1002900023EF30E040E065E070E080E090E084C46F
:1002A0008F929F92AF92BF92CF92DF92EF92FF9286
:1002B0000F931F93CF93DF9361E070E08CE190E0A8
:1002C000C2D661E070E08DE190E0BDD661E070E003
:1002D0008EE190E0B8D661E070E08FE190E0B3D6B7
:1002E0000EE810E09AE9E92E91E0F92E912C6801D0
:1002F00060E070E0F80180819181A5D686E8A82EA3
:1003000080E0B82EE701812CF501819191915F0188
:10031000F6D681111FC088818F3F11F08F5F8883CF
:1003200088818530C1F4682D690D8091300190E09D
:100330009C012F5F3F4F277033274091310150E0E0
:100340002417350741F0FC01EE5CFE4F60832093DB
:10035000300101C0188283942196F4E08F12D4CF2B
:100360000E5F1F4F61E070E0F601808191816BD6D6
:10037000F4E09F0E84E0E80EF11CE0E19E12B7CF9E
:10038000DF91CF911F910F91FF90EF90DF90CF9071
:10039000BF90AF909F908F9008950F931F93CF932E
:1003A000DF93CEE8D0E00991199161E070E0C801D7
:1003B000E6D561E070E0C80146D680E0C639D807CE
:1003C00091F762E070E080E190E0D9D562E070E002
:1003D00081E190E0D4D562E070E082E190E0CFD599
:1003E00062E070E083E190E0CAD5EAE9F1E01082D2
:1003F000118212821382349681E0EA3AF807B9F743
:10040000E2E3F1E08AE391E029E021938E179F0770
:10041000E1F720E531E040E065E070E080E090E069
:10042000DF91CF911F910F91BFC38091300190E078
:1004300020913101821B910997FD08960895F89447
:100440002091310180913001821769F030E0F9018B
:10045000EE5CFE4F808190E02F5F3F4F2770332787
:100460002093310102C08FEF9FEF78940895CF93CE
:10047000C82F682F687070E08FE190E0E4D56C2F92
:10048000647070E08EE190E0DED56C2F627070E0F9
:100490008DE190E0D8D56C2F617070E08CE190E038
:1004A000D2D585E38A95F1F7000061E070E088E03D
:1004B00090E0C9D585E38A95F1F7000060E070E02F
:1004C00088E090E0C0D585E38A95F1F70000CF91F0
:1004D00008950895CF93C82F60E070E089E090E020
:1004E000B2D58C2F82958F70C2DF8C2F8F70BFDFBB
:1004F00085E38A95F1F70000CF910895CF93C82F37
:1005000061E070E089E090E09ED58C2F82958F703D
:10051000AEDF8C2F8F70ABDF85E38A95F1F700009B
:10052000CF91089581E0D6DF8FE19EE40197F1F746
:1005300000C00000089582E0CDDF8FE19EE40197C6
:10054000F1F700C0000008958460C4DF85E38A9558
:10055000F1F7000008958860BDDF85E38A95F1F723
:10056000000008958061B6DF85E38A95F1F7000009
:1005700008958062AFDF85E38A95F1F70000089562
:1005800061E070E089E090E0FAD461E070E088E03A
:1005900090E0F5D461E070E08FE190E0F0D461E0AC
:1005A00070E08EE190E0EBD461E070E08DE190E0EE
:1005B000E6D461E070E08CE190E0E1D460E070E0CE
:1005C00089E090E040D560E070E088E090E03BD5C5
:1005D0002FEF80E792E0215080409040E1F700C08B
:1005E000000083E044DF25E32A95F1F7000083E073
:1005F0003EDF85E38A95F1F7000082E038DF95E37E
:100600009A95F1F7000088E090E0B3DF82E090E097
:100610009BDF84E090E09FDF85DF8DCF8F73805C70
:1006200059DF85E38A95F1F700000895806852DF6D
:1006300085E38A95F1F7000008958031910574F4FF
:10064000623071055CF448E2469F9001479F300D8F
:100650001124820F931FEADF81E0089580E008955E
:1006600080E0089580E008950F931F93CF93DF9368
:100670008C01EC019E01201B310B8991882311F024
:100680003DDFF8CFC901DF91CF911F910F91089500
:100690008F929F92AF92BF92CF92DF92EF92FF9292
:1006A0000F931F93CF938AE190E029D5082F8BE118
:1006B00090E025D5182FC0913E0134D26B017C010A
:1006C000000F012B037084E0C89FF0011124EA564B
:1006D000FF4FE00FF11DA0816A2F0A2E000C770B4F
:1006E000880B990B10E020E030E000933E0110935E
:1006F0003F0120934001309341016115710581054F
:100700009105D9F100913A0110913B0120913C01F2
:1007100030913D0146015701801A910AA20AB30A9D
:1007200095018401C0923A01D0923B01E0923C01D4
:10073000F0923D010B3011052105310540F49B017C
:10074000AC0160E472E48FE090E058D716C0033348
:1007500011052105310530F4A0E1B7E29B01AC01A0
:10076000A0D70BC0093C11052105310530F40A2E34
:10077000000CBB0B24E630E08ED7009142011091B3
:1007800043012091440130914501DC01CB01800FF0
:10079000911FA21FB31F8093420190934301A09326
:1007A0004401B0934501CF911F910F91FF90EF90BD
:1007B000DF90CF90BF90AF909F908F90089562E0B0
:1007C00070E08AE190E0DBD362E070E08BE190E0E2
:1007D000D6D328E433E040E061E070E080E090E0D0
:1007E000E3D19093630080936200092E000CAA0B62
:1007F000BB0B8093420190934301A0934401B093BB
:1008000045010895892B49F460914201709143019B
:100810008091440190914501089560E070E0CB0122
:100820000895892B41F44093420150934301609312
:100830004401709345010895CF93DF93D62FC42FC1
:1008400061E070E090E09BD361E070E08D2FDD0F00
:10085000990B95D3C7FD06C062E070E08C2FCC0FDA
:10086000990B8DD380E090E0DF91CF9108958F9226
:100870009F92AF92BF92CF92DF92EF92FF92CF936F
:10088000DF9361E070E08DE090E079D361E070E0AB
:100890008BE090E074D3C4E6D0E0C12C8AECD82E73
:1008A0008AE9E82E8BE3F82E9AEB892E912CA12C65
:1008B000B12C80E0C637D80779F18C8161E070E017
:1008C000082E000C990B5BD38C8161E070E0082E40
:1008D000000C990BB8D3288139814A815B8121159D
:1008E000310541055105B1F0C701B60196D6CA01DF
:1008F000B901685E734081099109A50194018DD603
:100900002F3F31054105510521F018F020E030E07E
:10091000A9012D832996CDCF80E090E0DF91CF9182
:10092000FF90EF90DF90CF90BF90AF909F908F900F
:1009300008954F925F926F927F92AF92BF92CF9243
:10094000DF92EF92FF920F931F93CF93DF93C82F05
:10095000D42F5901270138018230F8F489E0C89F6B
:10096000800111240C591F4FF8016483C62E660FB5
:10097000DD0861E070E0C60166D361E070E0C601A9
:10098000FED2F8014082518262827382B782A682CF
:10099000D087158200E010E002C00FEF1FEF411476
:1009A00051046104710411F160E07AEC8AE99BE37F
:1009B000A301920132D6CA01B901685E7340810970
:1009C00091092AEB30E040E050E027D62F3F310577
:1009D0004105510521F018F020E030E0A90189E03F
:1009E000C89FF0011124EC59FF4F2583C801DF9106
:1009F000CF911F910F91FF90EF90DF90CF90BF901C
:100A0000AF907F906F905F904F90089560E070E09E
:100A1000CB010895CF92DF92EF92FF9223B7287F08
:100A2000382F3770232B23BF02978430910560F451
:100A3000880F991F880F991FFC01EA55FF4FC0804E
:100A4000D180E280F38007C0C12C84E2D82E84E7F5
:100A5000E82E87E4F82EA701960160E070E08AE7AF
:100A600094E40BD7609372017093730180937401C7
:100A700090937501C0927601D0927701E09278014F
:100A8000F092790189B7816089BF80E090E02BE026
:100A9000289FF001299FF00D1124EA5BFE4F108280
:100AA0001182128213821482158216821782118695
:100AB000108601968430910559F7FF90EF90DF90F2
:100AC000CF90089599B789B78E7F89BF50917A01E9
:100AD00040917B0130917C0120917D0180917E01CC
:100AE00080917F01809180018091810199BF652F64
:100AF000742F832F922F0895E9B789B78E7F89BF0E
:100B000020917A0130917B0140917C0150917D01CF
:100B100060917E0170917F018091800190918101AF
:100B2000E9BF0895E9B789B78E7F89BF20917A011F
:100B300030917B0140917C0150917D0160917E015B
:100B400070917F018091800190918101E9BFA0D7D0
:100B5000209172013091730140917401509175019F
:100B600036D82DD70895E9B789B78E7F89BF2091F0
:100B70007A0130917B0140917C0150917D0160911F
:100B80007E0170917F018091800190918101E9BF88
:100B90007FD720917201309173014091740150917F
:100BA000750115D8D7D60895CF92DF92EF92FF92B4
:100BB0000F931F93CF93DF9300E010E05BE0509F13
:100BC000E001519FD00D1124CA5BDE4FC880D9804F
:100BD000EA80FB80CD28CE28CF2841F00F5F1F4F41
:100BE0000430110561F70FEF1FEF26C07901D42EF5
:100BF000C9B629B72E7F29BF10D720917201309135
:100C00007301409174015091750137D620E030E0B6
:100C100040E05FE3CED5D3D6688379838A839B8314
:100C200088819981AA81BB818C839D83AE83BF8398
:100C3000DA86F986E886C9BEC801DF91CF911F9197
:100C40000F91FF90EF90DF90CF9008958F929F9239
:100C5000AF92BF920F931F93CF93DF93D901C0E060
:100C6000D0E02BE02C9FF0012D9FF00D1124EA5BCA
:100C7000FE4F80809180A280B38089288A288B28AB
:100C800039F02196C430D10569F7CFEFDFEF14C0FA
:100C900059B739B73E7F39BF6083718382839383AD
:100CA0000081118122813381048315832683378358
:100CB0004287B187A08759BFCE01DF91CF911F91A5
:100CC0000F91BF90AF909F908F900895EF92FF92F9
:100CD0000F931F93CF93DF93EC01049750F5F22EFF
:100CE000CB01BA01E9B629B72E7F29BF96D620914C
:100CF0007201309173014091740150917501BDD51D
:100D00005ED62BE02C9FF0012D9FF00D1124EA5BA5
:100D1000FE4F608371838283938380819181A2815E
:100D2000B38184839583A683B783F2861187008776
:100D3000E9BEDF91CF911F910F91FF90EF90089541
:100D40000F931F93DC010497E0F489B799B79E7F56
:100D500099BF9BE09A9FF0019B9FF00D1124EA5BE5
:100D6000FE4F40835183628373834081518162814E
:100D70007381448355836683778322871187008735
:100D800089BF1F910F91089584309105E8F439B718
:100D900029B72E7F29BF2BE0289FF001299FF00D56
:100DA0001124EA5BFE4F648175818681978139BF8A
:100DB00032D62091720130917301409174015091AB
:100DC00075015BD5FCD5089560E070E0CB01089516
:100DD0009C01049790F449B799B79E7F99BF8BE027
:100DE000829FF001839FF00D1124EA5BFE4F648126
:100DF00075818681978149BF089560E070E0CB01DD
:100E000008959C01049778F489B799B79E7F99BF9C
:100E10009BE0929FF001939FF00D1124EA5BFE4F3F
:100E20007187608789BF089560917601709177011D
:100E3000809178019091790108956091720170918B
:100E40007301809174019091750108951F920F9222
:100E50000FB60F9211241F932F933F934F935F93DD
:100E60006F937F938F939F93AF93BF93CF93DF93B2
:100E7000EF93FF9320917A0130917B0140917C01A7
:100E800050917D0160917E0170917F018091800180
:100E900090918101A1E074D420937A0130937B0179
:100EA00040937C0150937D0160937E0170937F019C
:100EB0008093800190938101C0E0D0E01BE01C9FF3
:100EC000F0011D9FF00D1124EA5BFE4F8481958196
:100ED000A681B781892B8A2B8B2B69F1848195811F
:100EE000A681B7810197A109B10984839583A6835F
:100EF000B78384819581A681B781892B8A2B8B2B1F
:100F0000D1F48285811108C080819181A281B38151
:100F100084839583A683B7831C9FF0011D9FF00DEA
:100F20001124EA5BFE4F80859185892B21F0008496
:100F3000F185E02D09952196C430D10509F0BFCF88
:100F4000FF91EF91DF91CF91BF91AF919F918F91E1
:100F50007F916F915F914F913F912F911F910F90D2
:100F60000FBE0F901F901895EF920F9387BB68BB31
:100F700044BB25BB01BBE2BA0F91EF9008959C01E1
:100F800093E0359527959A95E1F7482F477081E0D2
:100F900090E001C0880F4A95EAF761307105A1F42D
:100FA00033272230310551F02330310551F0213003
:100FB000310509F047C097B3892B16C094B3892B2C
:100FC00017C091B3892B18C061157105B9F48095CC
:100FD00033272230310551F02330310559F02130CB
:100FE000310581F597B3892387BB089594B389238D
:100FF00084BB089591B3892381BB08956230710544
:1010000009F5482F409533272230310569F0233008
:10101000310589F021303105A9F497B3942397BBAA
:1010200098B3892B88BB089594B3942394BB95B34C
:10103000892B85BB089521B3942F922391BB92B342
:10104000892B82BB08959C0193E0359527959A954D
:10105000E1F7482F477081E090E001C0880F4A9582
:10106000EAF73327672B99F480952230310549F050
:101070002330310549F021303105E9F498B3892353
:1010800011C095B3892312C092B3892313C02230B3
:10109000310551F02330310559F02130310559F433
:1010A00098B3892B88BB089595B3892B85BB089588
:1010B00092B3892B82BB0895482F477021E030E01E
:1010C00001C0220F4A95EAF7209533E09595879560
:1010D0003A95E1F799278230910549F083309105DF
:1010E00051F0019759F488B3282328BB089585B39C
:1010F000282325BB089582B3282322BB0895282FD7
:10110000277033E0959587953A95E1F799278230D6
:10111000910539F08330910531F0019739F486B3A8
:1011200003C083B301C080B390E002C080E090E0D0
:1011300002C0959587952A95E2F7817099270895C1
:10114000282F277033E0959587953A95E1F79927F1
:101150008230910539F08330910531F0019739F4EF
:1011600088B303C085B301C082B390E002C080E0C1
:1011700090E002C0959587952A95E2F781709927AE
:10118000089560E070E08AE190E0F9DEF9D9CAD90B
:1011900086EB90E069DA83E090E03CDC6ED867DBB8
:1011A000E12CF12C870124E030E040E165E180E0B2
:1011B000C0DBBB9A04DB40E050E0BA0180E090E085
:1011C00030DB5DD7EAD880E091E264D760E67AEE62
:1011D00080E090E064D780E090EC5CD780E090E223
:1011E00059D710928501109284012FEF87EA91E67A
:1011F000215080409040E1F700C00000F89492D95F
:10120000789490DC6B017C018AE0482E512C612C93
:10121000712C95E0292E312C06E010E083DC4B0187
:101220005C016C157D058E059F05C1F380E090E0A3
:10123000E9DA6B017C0197FF08C020ECC20E28EDB3
:10124000D21E27EAE21EF11C0FC080ECC81688ED02
:10125000D80687EAE806F10464F090ECC91A98ED24
:10126000D90A97EAE90AF108B701A60180E090E0FF
:10127000D8DA8091840190918501892B19F4C701F6
:10128000B6010DD710922701C7E2D1E0EFE1F1E0FE
:1012900020E22193CE17DF07D9F7C701B601A301DA
:1012A0009201DDD1605D6A9369017A01C114D104B4
:1012B000E104F10429F08FE191E08C179D0769F7B3
:1012C000F89460E070E080E090E0B7D98FE191E0C1
:1012D000CBD97894BCD77C01B2D897FD39C0FC013A
:1012E000EA58FF4F80818F3399F128F4833261F0FF
:1012F0008A3289F120C08237D9F08337B1F0823445
:10130000D1F4EEE1F1E003C082E090E026C08291EA
:10131000818391E0E631F907D1F720E220931601AD
:1013200010921E0186E090E018C084E090E015C0A5
:1013300085E090E012C0E6E1F1E09181919391E0C7
:10134000ED31F907D1F780931D0181E090E005C0F0
:1013500080E090E002C083E090E0E0918401F091B1
:101360008501E830F10508F012C1ED5EFF4F0994E8
:10137000EF2819F481E090E038C08230910581F5C2
:10138000D6D66B017C0190ECC91698EDD90697EA88
:10139000E906F1048CF4C0928601D0928701E092B4
:1013A0008801F0928901C701B60179D6B701A6017B
:1013B00080E090E036DA12C0F89460E070E089E0F6
:1013C00090E03BD982EC90E04FD960E070E089E09A
:1013D00090E033D98AEC90E047D9789450D6D7C0C2
:1013E0008330910539F482E090E0909385018093F9
:1013F0008401CDC08430910509F480C0059709F0BF
:10140000C6C087E090E0F1CFEF2819F0029709F00D
:10141000BEC080E090E0F6D942D6109285011092CD
:101420008401B5C0EF2819F0029709F0B0C07FD64B
:1014300060938A0170938B0180938C0190938D014E
:101440001ED683E090E0D1CFEF2819F0029709F083
:101450009EC06DD660938E0170938F018093900132
:10146000909391010CD684E090E0BFCFEF2819F063
:10147000029709F08CC05BD69B01AC01A8EEB3E0EB
:1014800010D1609392017093930180939401909393
:101490009501F5D5309285012092840178C0EF281E
:1014A00019F08230910539F482E090E09093850143
:1014B0008093840193CF83309105C9F41092850104
:1014C00010928401409186015091870160918801BA
:1014D0007091890180E090E0A4D9609186017091BB
:1014E00087018091880190918901D9D550C00497D6
:1014F00009F04DC030928301209282011093850142
:101500000093840144C0019709F041C010D66B01DB
:101510007C01B5D5809182019091830190938501E2
:101520008093840196E19C9DB0019D9D700D1124D6
:101530006050704046E150E084E891E0BBD327C0A2
:10154000019729F5F4D56B017C0199D526E12C9DF5
:10155000B0012D9D700D11246050704046E150E0A7
:1015600084E891E097D36091860170918701809122
:1015700088019091890193D540918601509187010E
:10158000609188017091890180E090E04AD9F894D7
:1015900061E070E089E090E050D8E0918401F09142
:1015A0008501E830F105D8F4E55EFF4F09948FEC32
:1015B00090E017C087ED90E014C08FED90E011C06F
:1015C00087EE90E00EC08FEE90E00BC087EF90E0CA
:1015D00008C08FEF90E005C087E091E002C08FE087
:1015E00091E042D861E070E080E090E026D886E1AA
:1015F00091E03AD878947501640110CEDB018F93A5
:101600009F934FD0BF91AF91A29F800D911DA39F3B
:10161000900DB29F900D11240895A1E21A2EAA1BDD
:10162000BB1BFD010DC0AA1FBB1FEE1FFF1FA21792
:10163000B307E407F50720F0A21BB30BE40BF50B8F
:10164000661F771F881F991F1A9469F76095709518
:10165000809590959B01AC01BD01CF010895052EA9
:1016600097FB16F400940FD057FD05D0D6DF07FC8A
:1016700002D046F408C050954095309521953F4FD3
:101680004F4F5F4F089590958095709561957F4F6E
:101690008F4F9F4F089580D0B7FF0895821B930B03
:1016A00008957AD0A59F900DB49F900DA49F800DB2
:1016B000911D11240895689401C0E8948F929F921F
:1016C000CF93DF9305D0DF91CF919F908F900895B6
:1016D00088249924F401E401B0E41B2ED4019D1563
:1016E0008E049F04E007F10738F4FC014B01CA01A6
:1016F000B901AD019E011694220F331F441F551FDF
:10170000661F771F881F991F881C991CEE1FFF1FDB
:10171000CC1FDD1FAA1FBB1F8A149B04EC05FD050F
:10172000CE05DF05A007B10748F08A189B08EC0931
:10173000FD09CE09DF09A00BB10B21601A94E1F677
:101740002EF49401AF01BE01CD01000C08950F935A
:10175000083090F0982F872F762F652F542F432F26
:10176000322F22270850F4CF220F331F441F551F5A
:10177000661F771F881F991F0A95B2F70F9108956A
:101780000024A7FD00942A0F301D401D501D601D30
:10179000701D801D901D0895A29FB001B39FC001D0
:1017A000A39F01D0B29F700D811D1124911D08953A
:1017B0005058BB27AA270ED0D0C1C1D130F0C6D116
:1017C00020F031F49F3F11F41EF4A6C10EF4E09511
:1017D000E7FB9CC1E92FD2D180F3BA1762077307E8
:1017E0008407950718F071F49EF5EAC10EF4E095B0
:1017F0000B2EBA2FA02D0B01B90190010C01CA01CB
:10180000A0011124FF27591B99F0593F50F4503E75
:1018100068F11A16F040A22F232F342F4427585F67
:10182000F3CF469537952795A795F0405395C9F77F
:101830007EF41F16BA0B620B730B840BBAF0915037
:10184000A1F0FF0FBB1F661F771F881FC2F70EC0D6
:10185000BA0F621F731F841F48F4879577956795A9
:10186000B795F7959E3F08F0B3CF9395880F08F092
:101870009927EE0F9795879508950CD06EC166D184
:1018800040F05DD130F021F45F3F19F03FC15111BC
:1018900098C142C173D198F39923C9F35523B1F389
:1018A000951B550BBB27AA2762177307840738F0CF
:1018B0009F5F5F4F220F331F441FAA1FA9F333D02E
:1018C0000E2E3AF0E0E830D091505040E695001CE2
:1018D000CAF729D0FE2F27D0660F771F881FBB1F9E
:1018E000261737074807AB07B0E809F0BB0B802D78
:1018F000BF01FF2793585F4F2AF09E3F510568F0C4
:1019000005C15FC15F3FECF3983EDCF386957795A8
:101910006795B795F7959F5FC9F7880F911D9695C5
:10192000879597F90895E1E0660F771F881FBB1F21
:10193000621773078407BA0720F0621B730B840BCE
:10194000BA0BEE1F88F7E0950895BEE304D008F4C3
:1019500090E80895BFE322273327A90117D158F152
:101960009F5740F1B91738F1BFE3B91B9927B85019
:101970003AF4660F771F881F991FB395D2F316C0EC
:10198000B8504AF0232F342F452F562F672F782F2A
:101990008827B850BAF7B85F49F08695779567956C
:1019A0005795479537952795BA95B9F70EF4B7D05F
:1019B00088940895889460E070E0CB010895E6D0A3
:1019C00088F09F5790F0B92F9927B751A0F0D1F028
:1019D000660F771F881F991F1AF0BA95C9F712C0B2
:1019E000B13081F0EDD0B1E00895EAC0672F782FD3
:1019F0008827B85F39F0B93FCCF38695779567951E
:101A0000B395D9F73EF490958095709561957F4F89
:101A10008F4F9F4F0895E89409C097FB3EF490952F
:101A20008095709561957F4F8F4F9F4F9923A9F0B7
:101A3000F92F96E9BB279395F69587957795679546
:101A4000B795F111F8CFFAF4BB0F11F460FF1BC08A
:101A50006F5F7F4F8F4F9F4F16C0882311F096E91D
:101A600011C0772321F09EE8872F762F05C06623CB
:101A700071F096E8862F70E060E02AF09A95660F84
:101A8000771F881FDAF7880F9695879597F908953D
:101A9000E894F92F96EBFF2381F012161306140633
:101AA000440B9395F69587957795679557954040A4
:101AB000FF23B9F71BC099270895882351F4985044
:101AC000D2F7872B762F652F542F432F322F20E00C
:101AD000B1F3121613061406440B88233AF09A95B4
:101AE000440F551F661F771F881FCAF755234AF4F6
:101AF000440F551F11F460FF04C06F5F7F4F8F4F7D
:101B00009F4F880F9695879597F9089597F99F6746
:101B100080E870E060E008959FEF80EC0895909574
:101B200080957095609550954095309521953F4FE3
:101B30004F4F5F4F6F4F7F4F8F4F9F4F0895002440
:101B40000A941616170618060906089500240A9422
:101B500012161306140605060895092E0394000CA8
:101B600011F4882352F0BB0F40F4BF2B11F460FF37
:101B700004C06F5F7F4F8F4F9F4F089557FD905860
:101B8000440F551F59F05F3F71F04795880F97FB41
:101B9000991F61F09F3F79F08795089512161306FB
:101BA0001406551FF2CF4695F1DF08C0161617062A
:101BB0001806991FF1CF869571056105089408955F
:101BC000E894BB2766277727CB0197F908950BD0B8
:101BD000C4CFB5DF28F0BADF18F0952309F096CF0F
:101BE0009BCF1124EECFCADFA0F3959FD1F3950FC1
:101BF00050E0551F629FF001729FBB27F00DB11D91
:101C0000639FAA27F00DB11DAA1F649F6627B00D20
:101C1000A11D661F829F2227B00DA11D621F739F09
:101C2000B00DA11D621F839FA00D611D221F749F17
:101C30003327A00D611D231F849F600D211D822F5E
:101C4000762F6A2F11249F5750408AF0E1F08823A5
:101C50004AF0EE0FFF1FBB1F661F771F881F9150B2
:101C60005040A9F79E3F510570F050CFAACF5F3F7B
:101C7000ECF3983EDCF3869577956795B795F795E5
:101C8000E7959F5FC1F7FE2B880F911D969587956D
:101C900097F90895DC01CB01FC01E199FECF06C064
:101CA000FFBBEEBBE09A31960DB20D924150504011
:101CB000B8F70895DC01CB0102C02D9105D0415049
:101CC0005040D8F70895262FE199FECF9FBB8EBBD9
:101CD0002DBB0FB6F894E29AE19A0FBE01960895D3
:041CE000F894FFCFA6
:101CE4000C002A0000000000150004001000000091
:101CF4000014000400082A313437303235382333D5
:101D0400363972733F4210001100120013001C0098
:101D14001D001E001F0000000000000000FF000066
:101D24000001000000000024F44500247444002451
:101D3400744300247442536F6674526F636B203390
:101D44003300202020202020200068696768005488
:101D54007261636B2020005061757365202000461A
:101D64003120202020200046322020202020005432
:101D7400494D45202020005357454550202000530D
:101D8400544F5245202000524543414C4C200045BD
:061D940052524F522000E4
:00000001FF
