:1000000022C031C030C02FC02EC02DC02CC02BC08C
:100010002AC029C028C027C026C025C024C023C0AC
:1000200022C021C020C0D7C014C14AC18CC1BAC1EE
:10003000F4C123C25DC28CC2CAC2FDC23BC36EC33F
:10004000ADC3E1C320C411241FBECFE5D4E0DEBFA1
:10005000CDBF20E0A0E6B0E001C01D92AB36B207F4
:10006000E1F76CD5BDC5CCCFAC0160E070E080E0BD
:100070008BC0CF93DF93D62FC42F80936A0061E0AB
:1000800070E090E057D4D093690061E070E08D2F6C
:10009000DD0F990B4FD4C7FD06C062E070E08C2FD6
:1000A000CC0F990B47D480E090E0DF91CF91089579
:1000B0008F929F92AF92BF92CF92DF92EF92FF9278
:1000C0000F931F93CF93DF93C82FD42F690147015C
:1000D0005801811122C060936400062F660F110B36
:1000E00041E050E060E070E0C80188D461E070E079
:1000F000C80120D48092600090926100A0926200BA
:10010000B0926300D0926700C0926600D0936800FE
:100110001092650000E010E002C00FEF1FEF8114A5
:100120009104A104B10411F160E07AEC8AE99BE347
:10013000A501940133D5CA01B901685E73408109F4
:1001400091092AEB30E040E050E028D52F3F3105FF
:100150004105510521F018F020E030E0A90189E0C7
:10016000C89FF0011124E05AFF4F2583C801DF9199
:10017000CF911F910F91FF90EF90DF90CF90BF90A4
:10018000AF909F908F9008958F929F92AF92BF9261
:10019000CF92DF92EF92FF920F931F93CF93DF9353
:1001A00029E0829FC0011124FC01E05AFF4F048125
:1001B000C581D0850680F781E02DE031F10508F09A
:1001C0009EC36A017B01ED5EFF4F80916A00002EA5
:1001D000000C110B099440E050E0BA0190E00ED4FD
:1001E00040E050E0BA01C80109D4AD2EB12C80E244
:1001F00090E08A199B0904C0CC0CDD1CEE1CFF1C8E
:100200008A95D2F7C0E0D0E0CA15DB050CF071C3C7
:10021000B701A601442755276627707880916900A9
:10022000082E000C990BEAD380916A0041E050E05F
:1002300060E070E090E0E2D380916A0040E050E03E
:10024000BA0190E0DBD3CC0CDD1CEE1CFF1C219628
:10025000DBCF40E050E0BA0190E0D0D340E050E086
:10026000BA01C801CBD346015701E12CF12CCD2FA7
:10027000D0E0EC16FD060CF03CC3B501A4014170C2
:1002800055276627772780916900082E000C990B67
:10029000B5D380916A0041E050E060E070E090E00A
:1002A000ADD380916A0040E050E0BA0190E0A6D35F
:1002B000B694A794979487948FEFE81AF80AD9CF49
:1002C00040E050E0BA0190E099D340E050E0BA013C
:1002D000C80194D3AD2EB12C80E290E08A199B091D
:1002E00004C0CC0CDD1CEE1CFF1C8A95D2F740E04C
:1002F00050E0BA01C80182D3C0E0D0E0CA15DB05E6
:100300000CF0F7C2B701A60144275527662770787D
:1003100080916900082E000C990B70D380916A00BF
:1003200041E050E060E070E090E068D380916A00C6
:1003300040E050E0BA0190E061D3CC0CDD1CEE1C33
:10034000FF1C2196DBCF40E050E0BA0190E056D38D
:1003500040E050E0BA01C80151D3C0E0CD1709F424
:10036000C8C2B701A601417055276627772780913B
:100370006900082E000C990B41D380916A0041E07E
:1003800050E060E070E090E039D380916A0040E096
:1003900050E0BA0190E032D3F694E794D794C79432
:1003A000CF5FDCCF41E050E060E070E090E026D32A
:1003B00080E290E08D1B910904C0CC0CDD1CEE1C8A
:1003C000FF1C8A95D2F740E050E0BA01C80116D36D
:1003D000C0E0CD1709F48DC2B701A6014427552707
:1003E0006627707880916900082E000C990B06D35F
:1003F00080916A0040E050E0BA0190E0FFD2809125
:100400006A0041E050E060E070E090E0F7D2CC0C90
:10041000DD1CEE1CFF1CCF5FDCCF41E050E060E054
:1004200070E090E0EBD240E050E0BA01C801E6D2C3
:10043000C0E0CD1709F45DC2B701A6014170552790
:100440006627772780916900082E000C990BD6D279
:1004500080916A0040E050E0BA0190E0CFD28091F4
:100460006A0041E050E060E070E090E0C7D2F694AE
:10047000E794D794C794CF5FDCCF41E050E060E0D1
:1004800070E090E0BBD240E050E0BA01C801B6D2C3
:1004900084E090E08D1B910904C0CC0CDD1CEE1CA7
:1004A000FF1C8A95D2F7C0E0CD1709F422C2B7012C
:1004B000A601442755276627707880916900082E89
:1004C000000C990B9BD280916A0040E050E0BA0189
:1004D00090E094D280916A0041E050E060E070E0EA
:1004E00090E08CD2CC0CDD1CEE1CFF1CCF5FDCCF6F
:1004F00041E050E060E070E090E080D240E050E009
:10050000BA01C8017BD2C0E0CD1709F4F2C1B7012E
:10051000A601417055276627772780916900082E2C
:10052000000C990B6BD280916A0040E050E0BA0158
:1005300090E064D280916A0041E050E060E070E0B9
:1005400090E05CD2F694E794D794C794CF5FDCCF69
:1005500040E050E0BA0190E051D240E050E0BA01F2
:10056000C8014CD284E090E08D1B910946015701EF
:1005700004C0880C991CAA1CBB1C8A95D2F7F12CCC
:10058000FD1609F4B4C18C2F8A95F1F7B501A401C9
:10059000442755276627707880916900082E000C43
:1005A000990B2CD280916A0041E050E060E070E04D
:1005B00090E024D280916A0040E050E0BA0190E0DF
:1005C0001DD2880C991CAA1CBB1CF394D9CF40E007
:1005D00050E0BA0190E012D240E050E0BA01C80108
:1005E0000DD246015701F12CFD1609F480C18C2F64
:1005F0008A95F1F7B501A401417055276627772741
:1006000080916900082E000C990BF8D180916A0046
:1006100041E050E060E070E090E0F0D180916A004D
:1006200040E050E0BA0190E0E9D1B694A7949794E5
:100630008794F394D9CF40E050E0BA0190E0DED146
:1006400040E050E0BA01C801D9D184E090E08D1BB0
:1006500091094601570104C0880C991CAA1CBB1CB7
:100660008A95D2F7F12CFD1609F441C18C2F8A9599
:10067000F1F7B501A40144275527662770788091CA
:100680006900082E000C990BB9D180916A0041E0F5
:1006900050E060E070E090E0B1D180916A0040E00D
:1006A00050E0BA0190E0AAD1880C991CAA1CBB1C8E
:1006B000F394D9CF40E050E0BA0190E09FD140E000
:1006C00050E0BA01C8019AD146015701F12CFD163C
:1006D00009F40DC18C2F8A95F1F7B501A401417081
:1006E00055276627772780916900082E000C990B03
:1006F00085D180916A0041E050E060E070E090E0D8
:100700007DD180916A0040E050E0BA0190E076D15E
:10071000B694A79497948794F394D9CF41E050E08E
:1007200060E070E090E06AD140E050E0BA01C801BA
:1007300065D184E090E08D1B91094601570104C00A
:10074000880C991CAA1CBB1C8A95D2F7F12CFD16AB
:1007500009F4CDC08C2F8A95F1F7B501A401442787
:1007600055276627707880916900082E000C990B38
:1007700045D180916A0040E050E0BA0190E03ED15E
:1007800080916A0041E050E060E070E090E036D196
:10079000880C991CAA1CBB1CF394D9CF41E050E0F3
:1007A00060E070E090E02AD140E050E0BA01C8017A
:1007B00025D146015701F12CFD1609F498C08C2F64
:1007C0008A95F1F7B501A40141705527662777276F
:1007D00080916900082E000C990B10D180916A005D
:1007E00040E050E0BA0190E009D180916A0041E018
:1007F00050E060E070E090E001D1B694A794979447
:100800008794F394D9CF41E050E060E070E090E04D
:10081000F5D040E050E0BA01C801F0D084E090E0AB
:100820008D1B91094601570104C0880C991CAA1C14
:10083000BB1C8A95D2F7F12CFD1609F458C08C2FF9
:100840008A95F1F7B501A4014427552766277078EA
:1008500080916900082E000C990BD0D080916A001D
:1008600040E050E0BA0190E0C9D080916A0041E0D8
:1008700050E060E070E090E0C1D0880C991CAA1CA8
:10088000BB1CF394D9CF41E050E060E070E090E011
:10089000B5D040E050E0BA01C801B0D046015701E0
:1008A000F12CFD1621F18C2F8A95F1F7B501A401E9
:1008B000417055276627772780916900082E000C24
:1008C000990B9CD080916A0040E050E0BA0190E022
:1008D00095D080916A0041E050E060E070E090E0E7
:1008E0008DD0B694A79497948794F394DACFCA9551
:1008F000F1F741E050E060E070E0C8017FD060E0D7
:1009000070E0CB01DF91CF911F910F91FF90EF909D
:10091000DF90CF90BF90AF909F908F900895EF920F
:100920000F9387BB68BB44BB25BB01BBE2BA0F91E9
:10093000EF9008959C0193E0359527959A95E1F7FE
:10094000482F477081E090E001C0880F4A95EAF790
:1009500061307105A1F433272230310551F0233085
:10096000310551F02130310509F047C097B3892B8B
:1009700016C094B3892B17C091B3892B18C0611589
:100980007105B9F4809533272230310551F02330B9
:10099000310559F02130310581F597B3892387BBA3
:1009A000089594B3892384BB089591B3892381BBAF
:1009B00008956230710509F5482F4095332722309C
:1009C000310569F02330310589F021303105A9F472
:1009D00097B3942397BB98B3892B88BB089594B39E
:1009E000942394BB95B3892B85BB089521B3942F91
:1009F000922391BB92B3892B82BB08959C0193E013
:100A0000359527959A95E1F7E82FE77081E090E01A
:100A100001C0880FEA95EAF73327452B462B472B71
:100A200099F480952230310549F02330310549F0A1
:100A300021303105E9F498B3892311C095B3892396
:100A400012C092B3892313C02230310551F02330F4
:100A5000310559F02130310559F498B3892B88BB01
:100A6000089595B3892B85BB089592B3892B82BBDA
:100A70000895482F477021E030E001C0220F4A95C9
:100A8000EAF7209533E0959587953A95E1F7992710
:100A90008230910549F08330910551F0019759F466
:100AA00088B3282328BB089585B3282325BB089540
:100AB00082B3282322BB0895282F277033E0959511
:100AC00087953A95E1F799278230910539F083307F
:100AD000910531F0019739F486B303C083B301C0A7
:100AE00080B390E002C080E090E002C095958795C9
:100AF0002A95E2F7817099270895282F277033E00F
:100B0000959587953A95E1F799278230910539F0C7
:100B10008330910531F0019739F488B303C085B370
:100B200001C082B390E002C080E090E002C09595E1
:100B300087952A95E2F781709927089560E070E023
:100B40008AE190E0F7DE4FEF6BE08DE092DAE12C86
:100B5000F12C870124E030E040E165E180E0A8DA93
:100B6000BB9A80E091E280DA80E091E27DDA8AE16E
:100B70008A95F1F700C080E090E476DA80E090E5B5
:100B800073DA80E090EC70DA80E090E26DDA87EC66
:100B900090E00197F1F700C00000FFCFA1E21A2E0C
:100BA000AA1BBB1BFD010DC0AA1FBB1FEE1FFF1F11
:100BB000A217B307E407F50720F0A21BB30BE40B61
:100BC000F50B661F771F881F991F1A9469F76095A8
:100BD0007095809590959B01AC01BD01CF01089562
:040BE000F894FFCFB7
:00000001FF
